{
  "contractName": "ProcurementSystem",
  "abi": [
    {
      "inputs": [],
      "stateMutability": "nonpayable",
      "type": "constructor"
    },
    {
      "inputs": [
        {
          "internalType": "address",
          "name": "owner",
          "type": "address"
        }
      ],
      "name": "OwnableInvalidOwner",
      "type": "error"
    },
    {
      "inputs": [
        {
          "internalType": "address",
          "name": "account",
          "type": "address"
        }
      ],
      "name": "OwnableUnauthorizedAccount",
      "type": "error"
    },
    {
      "inputs": [],
      "name": "ReentrancyGuardReentrantCall",
      "type": "error"
    },
    {
      "anonymous": false,
      "inputs": [
        {
          "indexed": false,
          "internalType": "uint256",
          "name": "tenderId",
          "type": "uint256"
        },
        {
          "indexed": false,
          "internalType": "address",
          "name": "vendor",
          "type": "address"
        },
        {
          "indexed": false,
          "internalType": "uint256",
          "name": "cost",
          "type": "uint256"
        }
      ],
      "name": "BidSubmitted",
      "type": "event"
    },
    {
      "anonymous": false,
      "inputs": [
        {
          "indexed": true,
          "internalType": "address",
          "name": "previousOwner",
          "type": "address"
        },
        {
          "indexed": true,
          "internalType": "address",
          "name": "newOwner",
          "type": "address"
        }
      ],
      "name": "OwnershipTransferred",
      "type": "event"
    },
    {
      "anonymous": false,
      "inputs": [
        {
          "indexed": false,
          "internalType": "uint256",
          "name": "tenderId",
          "type": "uint256"
        },
        {
          "indexed": false,
          "internalType": "address",
          "name": "vendor",
          "type": "address"
        },
        {
          "indexed": false,
          "internalType": "uint256",
          "name": "amount",
          "type": "uint256"
        }
      ],
      "name": "PaymentReleased",
      "type": "event"
    },
    {
      "anonymous": false,
      "inputs": [
        {
          "indexed": false,
          "internalType": "uint256",
          "name": "tenderId",
          "type": "uint256"
        },
        {
          "indexed": false,
          "internalType": "address",
          "name": "company",
          "type": "address"
        },
        {
          "indexed": false,
          "internalType": "string",
          "name": "material",
          "type": "string"
        }
      ],
      "name": "TenderCreated",
      "type": "event"
    },
    {
      "anonymous": false,
      "inputs": [
        {
          "indexed": false,
          "internalType": "address",
          "name": "vendor",
          "type": "address"
        },
        {
          "indexed": false,
          "internalType": "address",
          "name": "company",
          "type": "address"
        },
        {
          "indexed": false,
          "internalType": "uint256",
          "name": "rating",
          "type": "uint256"
        }
      ],
      "name": "VendorRated",
      "type": "event"
    },
    {
      "anonymous": false,
      "inputs": [
        {
          "indexed": false,
          "internalType": "uint256",
          "name": "tenderId",
          "type": "uint256"
        },
        {
          "indexed": false,
          "internalType": "address",
          "name": "vendor",
          "type": "address"
        },
        {
          "indexed": false,
          "internalType": "uint256",
          "name": "amount",
          "type": "uint256"
        }
      ],
      "name": "VendorSelected",
      "type": "event"
    },
    {
      "inputs": [
        {
          "internalType": "uint256",
          "name": "",
          "type": "uint256"
        },
        {
          "internalType": "uint256",
          "name": "",
          "type": "uint256"
        }
      ],
      "name": "bids",
      "outputs": [
        {
          "internalType": "address",
          "name": "vendor",
          "type": "address"
        },
        {
          "internalType": "uint256",
          "name": "cost",
          "type": "uint256"
        },
        {
          "internalType": "string",
          "name": "qualityProof",
          "type": "string"
        },
        {
          "internalType": "bool",
          "name": "isActive",
          "type": "bool"
        }
      ],
      "stateMutability": "view",
      "type": "function"
    },
    {
      "inputs": [
        {
          "internalType": "address",
          "name": "",
          "type": "address"
        },
        {
          "internalType": "uint256",
          "name": "",
          "type": "uint256"
        }
      ],
      "name": "hasRated",
      "outputs": [
        {
          "internalType": "bool",
          "name": "",
          "type": "bool"
        }
      ],
      "stateMutability": "view",
      "type": "function"
    },
    {
      "inputs": [],
      "name": "owner",
      "outputs": [
        {
          "internalType": "address",
          "name": "",
          "type": "address"
        }
      ],
      "stateMutability": "view",
      "type": "function"
    },
    {
      "inputs": [],
      "name": "renounceOwnership",
      "outputs": [],
      "stateMutability": "nonpayable",
      "type": "function"
    },
    {
      "inputs": [],
      "name": "tenderCount",
      "outputs": [
        {
          "internalType": "uint256",
          "name": "",
          "type": "uint256"
        }
      ],
      "stateMutability": "view",
      "type": "function"
    },
    {
      "inputs": [
        {
          "internalType": "uint256",
          "name": "",
          "type": "uint256"
        }
      ],
      "name": "tenders",
      "outputs": [
        {
          "internalType": "address",
          "name": "company",
          "type": "address"
        },
        {
          "internalType": "string",
          "name": "material",
          "type": "string"
        },
        {
          "internalType": "uint256",
          "name": "quantity",
          "type": "uint256"
        },
        {
          "internalType": "uint256",
          "name": "deadline",
          "type": "uint256"
        },
        {
          "internalType": "uint256",
          "name": "maxBudget",
          "type": "uint256"
        },
        {
          "internalType": "bool",
          "name": "isOpen",
          "type": "bool"
        },
        {
          "internalType": "address",
          "name": "selectedVendor",
          "type": "address"
        },
        {
          "internalType": "uint256",
          "name": "escrowAmount",
          "type": "uint256"
        }
      ],
      "stateMutability": "view",
      "type": "function"
    },
    {
      "inputs": [
        {
          "internalType": "address",
          "name": "newOwner",
          "type": "address"
        }
      ],
      "name": "transferOwnership",
      "outputs": [],
      "stateMutability": "nonpayable",
      "type": "function"
    },
    {
      "inputs": [
        {
          "internalType": "address",
          "name": "",
          "type": "address"
        }
      ],
      "name": "vendors",
      "outputs": [
        {
          "internalType": "uint256",
          "name": "reputationScore",
          "type": "uint256"
        },
        {
          "internalType": "uint256",
          "name": "totalRatings",
          "type": "uint256"
        },
        {
          "internalType": "uint256",
          "name": "sumRatings",
          "type": "uint256"
        }
      ],
      "stateMutability": "view",
      "type": "function"
    },
    {
      "inputs": [
        {
          "internalType": "string",
          "name": "_material",
          "type": "string"
        },
        {
          "internalType": "uint256",
          "name": "_quantity",
          "type": "uint256"
        },
        {
          "internalType": "uint256",
          "name": "_duration",
          "type": "uint256"
        },
        {
          "internalType": "uint256",
          "name": "_maxBudget",
          "type": "uint256"
        }
      ],
      "name": "createTender",
      "outputs": [],
      "stateMutability": "payable",
      "type": "function"
    },
    {
      "inputs": [
        {
          "internalType": "uint256",
          "name": "_tenderId",
          "type": "uint256"
        },
        {
          "internalType": "uint256",
          "name": "_cost",
          "type": "uint256"
        },
        {
          "internalType": "string",
          "name": "_qualityProof",
          "type": "string"
        }
      ],
      "name": "submitBid",
      "outputs": [],
      "stateMutability": "nonpayable",
      "type": "function"
    },
    {
      "inputs": [
        {
          "internalType": "uint256",
          "name": "_tenderId",
          "type": "uint256"
        },
        {
          "internalType": "uint256",
          "name": "_bidIndex",
          "type": "uint256"
        }
      ],
      "name": "calculateScore",
      "outputs": [
        {
          "internalType": "uint256",
          "name": "",
          "type": "uint256"
        }
      ],
      "stateMutability": "view",
      "type": "function"
    },
    {
      "inputs": [
        {
          "internalType": "uint256",
          "name": "_tenderId",
          "type": "uint256"
        },
        {
          "internalType": "uint256",
          "name": "_bidIndex",
          "type": "uint256"
        }
      ],
      "name": "selectVendor",
      "outputs": [],
      "stateMutability": "nonpayable",
      "type": "function"
    },
    {
      "inputs": [
        {
          "internalType": "uint256",
          "name": "_tenderId",
          "type": "uint256"
        }
      ],
      "name": "releasePayment",
      "outputs": [],
      "stateMutability": "nonpayable",
      "type": "function"
    },
    {
      "inputs": [
        {
          "internalType": "address",
          "name": "_vendor",
          "type": "address"
        },
        {
          "internalType": "uint256",
          "name": "_tenderId",
          "type": "uint256"
        },
        {
          "internalType": "uint256",
          "name": "_rating",
          "type": "uint256"
        }
      ],
      "name": "rateVendor",
      "outputs": [],
      "stateMutability": "nonpayable",
      "type": "function"
    },
    {
      "inputs": [
        {
          "internalType": "uint256",
          "name": "_tenderId",
          "type": "uint256"
        }
      ],
      "name": "getTopBidIndex",
      "outputs": [
        {
          "internalType": "uint256",
          "name": "",
          "type": "uint256"
        }
      ],
      "stateMutability": "view",
      "type": "function"
    }
  ],
  "bytecode": "0x608060405234801562000010575f80fd5b50335f73ffffffffffffffffffffffffffffffffffffffff168173ffffffffffffffffffffffffffffffffffffffff160362000085575f6040517f1e4fbdf70000000000000000000000000000000000000000000000000000000081526004016200007c9190620001a8565b60405180910390fd5b6200009681620000a460201b60201c565b5060018081905550620001c3565b5f805f9054906101000a900473ffffffffffffffffffffffffffffffffffffffff169050815f806101000a81548173ffffffffffffffffffffffffffffffffffffffff021916908373ffffffffffffffffffffffffffffffffffffffff1602179055508173ffffffffffffffffffffffffffffffffffffffff168173ffffffffffffffffffffffffffffffffffffffff167f8be0079c531659141344cd1fd0a4f28419497f9722a3daafe3b4186f6b6457e060405160405180910390a35050565b5f73ffffffffffffffffffffffffffffffffffffffff82169050919050565b5f620001908262000165565b9050919050565b620001a28162000184565b82525050565b5f602082019050620001bd5f83018462000197565b92915050565b6129f780620001d15f395ff3fe6080604052600436106100e7575f3560e01c8063715018a611610089578063d25468b311610058578063d25468b3146102f9578063d793e87514610335578063e86490f61461035d578063f2fde38b14610385576100e7565b8063715018a6146102525780637b3c4baa1461026857806388685cd9146102a75780638da5cb5b146102cf576100e7565b80631cb9a02a116100c55780631cb9a02a1461016b5780631f058776146101a757806327e30c36146101d1578063465e1def1461020f576100e7565b80630e8cf18e146100eb57806314c60bdd146101275780631c02e8f71461014f575b5f80fd5b3480156100f6575f80fd5b50610111600480360381019061010c91906119c2565b6103ad565b60405161011e91906119fc565b60405180910390f35b348015610132575f80fd5b5061014d60048036038101906101489190611b51565b61040c565b005b61016960048036038101906101649190611bbd565b610634565b005b348015610176575f80fd5b50610191600480360381019061018c9190611c3d565b610842565b60405161019e91906119fc565b60405180910390f35b3480156101b2575f80fd5b506101bb610af9565b6040516101c891906119fc565b60405180910390f35b3480156101dc575f80fd5b506101f760048036038101906101f29190611cd5565b610aff565b60405161020693929190611d00565b60405180910390f35b34801561021a575f80fd5b50610235600480360381019061023091906119c2565b610b25565b604051610249989796959493929190611dd8565b60405180910390f35b34801561025d575f80fd5b50610266610c3a565b005b348015610273575f80fd5b5061028e60048036038101906102899190611c3d565b610c4d565b60405161029e9493929190611e5b565b60405180910390f35b3480156102b2575f80fd5b506102cd60048036038101906102c891906119c2565b610d44565b005b3480156102da575f80fd5b506102e3610f7e565b6040516102f09190611ea5565b60405180910390f35b348015610304575f80fd5b5061031f600480360381019061031a9190611ebe565b610fa5565b60405161032c9190611efc565b60405180910390f35b348015610340575f80fd5b5061035b60048036038101906103569190611c3d565b610fcf565b005b348015610368575f80fd5b50610383600480360381019061037e9190611f15565b611408565b005b348015610390575f80fd5b506103ab60048036038101906103a69190611cd5565b61175c565b005b5f805f805f90505b60045f8681526020019081526020015f2080549050811015610401575f6103dc8683610842565b9050838111156103ed578093508192505b5080806103f990611f92565b9150506103b5565b508092505050919050565b5f60035f8581526020019081526020015f209050806005015f9054906101000a900460ff16610470576040517f08c379a000000000000000000000000000000000000000000000000000000000815260040161046790612023565b60405180910390fd5b806003015442106104b6576040517f08c379a00000000000000000000000000000000000000000000000000000000081526004016104ad9061208b565b60405180910390fd5b80600401548311156104fd576040517f08c379a00000000000000000000000000000000000000000000000000000000081526004016104f4906120f3565b60405180910390fd5b60045f8581526020019081526020015f2060405180608001604052803373ffffffffffffffffffffffffffffffffffffffff16815260200185815260200184815260200160011515815250908060018154018082558091505060019003905f5260205f2090600402015f909190919091505f820151815f015f6101000a81548173ffffffffffffffffffffffffffffffffffffffff021916908373ffffffffffffffffffffffffffffffffffffffff1602179055506020820151816001015560408201518160020190816105d1919061230b565b506060820151816003015f6101000a81548160ff02191690831515021790555050507f177554f051f4aa1f0d0310334854b429baeecdb5a96bc329a26fd0cb7c8a7be3843385604051610626939291906123da565b60405180910390a150505050565b803414610676576040517f08c379a000000000000000000000000000000000000000000000000000000000815260040161066d90612459565b60405180910390fd5b60025f81548092919061068890611f92565b91905055506040518061010001604052803373ffffffffffffffffffffffffffffffffffffffff16815260200185815260200184815260200183426106cd9190612477565b81526020018281526020016001151581526020015f73ffffffffffffffffffffffffffffffffffffffff1681526020013481525060035f60025481526020019081526020015f205f820151815f015f6101000a81548173ffffffffffffffffffffffffffffffffffffffff021916908373ffffffffffffffffffffffffffffffffffffffff160217905550602082015181600101908161076d919061230b565b5060408201518160020155606082015181600301556080820151816004015560a0820151816005015f6101000a81548160ff02191690831515021790555060c08201518160050160016101000a81548173ffffffffffffffffffffffffffffffffffffffff021916908373ffffffffffffffffffffffffffffffffffffffff16021790555060e082015181600601559050507f288fb350e32a29a301bcf9c6db5b3291bd98bb776a3471eaa26c72f03968f8c86002543386604051610834939291906124aa565b60405180910390a150505050565b5f8060045f8581526020019081526020015f208381548110610867576108666124e6565b5b905f5260205f2090600402016040518060800160405290815f82015f9054906101000a900473ffffffffffffffffffffffffffffffffffffffff1673ffffffffffffffffffffffffffffffffffffffff1673ffffffffffffffffffffffffffffffffffffffff168152602001600182015481526020016002820180546108ec9061213e565b80601f01602080910402602001604051908101604052809291908181526020018280546109189061213e565b80156109635780601f1061093a57610100808354040283529160200191610963565b820191905f5260205f20905b81548152906001019060200180831161094657829003601f168201915b50505050508152602001600382015f9054906101000a900460ff16151515158152505090505f60055f835f015173ffffffffffffffffffffffffffffffffffffffff1673ffffffffffffffffffffffffffffffffffffffff1681526020019081526020015f206040518060800160405290815f8201548152602001600182015481526020016002820154815260200160038201805480602002602001604051908101604052809291908181526020018280548015610a3e57602002820191905f5260205f20905b815481526020019060010190808311610a2a575b50505050508152505090505f60035f8781526020019081526020015f20600401546028846020015160035f8a81526020019081526020015f2060040154610a859190612513565b610a8f9190612546565b610a9991906125b4565b90505f8084604001515111610aae575f610ab1565b60235b60ff1690505f60056019855f0151610ac99190612546565b610ad391906125b4565b9050808284610ae29190612477565b610aec9190612477565b9550505050505092915050565b60025481565b6005602052805f5260405f205f91509050805f0154908060010154908060020154905083565b6003602052805f5260405f205f91509050805f015f9054906101000a900473ffffffffffffffffffffffffffffffffffffffff1690806001018054610b699061213e565b80601f0160208091040260200160405190810160405280929190818152602001828054610b959061213e565b8015610be05780601f10610bb757610100808354040283529160200191610be0565b820191905f5260205f20905b815481529060010190602001808311610bc357829003601f168201915b505050505090806002015490806003015490806004015490806005015f9054906101000a900460ff16908060050160019054906101000a900473ffffffffffffffffffffffffffffffffffffffff16908060060154905088565b610c426117e0565b610c4b5f611867565b565b6004602052815f5260405f208181548110610c66575f80fd5b905f5260205f2090600402015f9150915050805f015f9054906101000a900473ffffffffffffffffffffffffffffffffffffffff1690806001015490806002018054610cb19061213e565b80601f0160208091040260200160405190810160405280929190818152602001828054610cdd9061213e565b8015610d285780601f10610cff57610100808354040283529160200191610d28565b820191905f5260205f20905b815481529060010190602001808311610d0b57829003601f168201915b505050505090806003015f9054906101000a900460ff16905084565b8060035f8281526020019081526020015f205f015f9054906101000a900473ffffffffffffffffffffffffffffffffffffffff1673ffffffffffffffffffffffffffffffffffffffff163373ffffffffffffffffffffffffffffffffffffffff1614610de5576040517f08c379a0000000000000000000000000000000000000000000000000000000008152600401610ddc9061262e565b60405180910390fd5b610ded611928565b5f60035f8481526020019081526020015f209050806005015f9054906101000a900460ff1615610e52576040517f08c379a0000000000000000000000000000000000000000000000000000000008152600401610e4990612696565b60405180910390fd5b5f816006015411610e98576040517f08c379a0000000000000000000000000000000000000000000000000000000008152600401610e8f906126fe565b60405180910390fd5b5f816006015490505f82600601819055508160050160019054906101000a900473ffffffffffffffffffffffffffffffffffffffff1673ffffffffffffffffffffffffffffffffffffffff166108fc8290811502906040515f60405180830381858888f19350505050158015610f10573d5f803e3d5ffd5b507f21d71db5be59bb9fa133895586b7404307dd33fb93b16db09dc6f1d9d7d231b0848360050160019054906101000a900473ffffffffffffffffffffffffffffffffffffffff1683604051610f68939291906123da565b60405180910390a15050610f7a61196e565b5050565b5f805f9054906101000a900473ffffffffffffffffffffffffffffffffffffffff16905090565b6006602052815f5260405f20602052805f5260405f205f915091509054906101000a900460ff1681565b8160035f8281526020019081526020015f205f015f9054906101000a900473ffffffffffffffffffffffffffffffffffffffff1673ffffffffffffffffffffffffffffffffffffffff163373ffffffffffffffffffffffffffffffffffffffff1614611070576040517f08c379a00000000000000000000000000000000000000000000000000000000081526004016110679061262e565b60405180910390fd5b611078611928565b5f60035f8581526020019081526020015f209050806005015f9054906101000a900460ff166110dc576040517f08c379a00000000000000000000000000000000000000000000000000000000081526004016110d390612023565b60405180910390fd5b8060030154421015611123576040517f08c379a000000000000000000000000000000000000000000000000000000000815260040161111a90612766565b60405180910390fd5b60045f8581526020019081526020015f20805490508310611179576040517f08c379a0000000000000000000000000000000000000000000000000000000008152600401611170906127ce565b60405180910390fd5b5f60045f8681526020019081526020015f20848154811061119d5761119c6124e6565b5b905f5260205f2090600402019050806003015f9054906101000a900460ff166111fb576040517f08c379a00000000000000000000000000000000000000000000000000000000081526004016111f290612836565b60405180910390fd5b805f015f9054906101000a900473ffffffffffffffffffffffffffffffffffffffff168260050160016101000a81548173ffffffffffffffffffffffffffffffffffffffff021916908373ffffffffffffffffffffffffffffffffffffffff1602179055505f826005015f6101000a81548160ff0219169083151502179055508060010154826006018190555080600101548260040154111561131257815f015f9054906101000a900473ffffffffffffffffffffffffffffffffffffffff1673ffffffffffffffffffffffffffffffffffffffff166108fc826001015484600401546112e89190612513565b90811502906040515f60405180830381858888f19350505050158015611310573d5f803e3d5ffd5b505b60055f825f015f9054906101000a900473ffffffffffffffffffffffffffffffffffffffff1673ffffffffffffffffffffffffffffffffffffffff1673ffffffffffffffffffffffffffffffffffffffff1681526020019081526020015f2060030185908060018154018082558091505060019003905f5260205f20015f90919091909150557f9756b11c1783ecaaf9be945d5f1e1762cd2f63e9b3e1c88228d96f1e79cc144285825f015f9054906101000a900473ffffffffffffffffffffffffffffffffffffffff1683600101546040516113f1939291906123da565b60405180910390a1505061140361196e565b505050565b5f60035f8481526020019081526020015f2090508373ffffffffffffffffffffffffffffffffffffffff168160050160019054906101000a900473ffffffffffffffffffffffffffffffffffffffff1673ffffffffffffffffffffffffffffffffffffffff16146114ae576040517f08c379a00000000000000000000000000000000000000000000000000000000081526004016114a59061289e565b60405180910390fd5b805f015f9054906101000a900473ffffffffffffffffffffffffffffffffffffffff1673ffffffffffffffffffffffffffffffffffffffff163373ffffffffffffffffffffffffffffffffffffffff161461153e576040517f08c379a00000000000000000000000000000000000000000000000000000000081526004016115359061262e565b60405180910390fd5b60065f3373ffffffffffffffffffffffffffffffffffffffff1673ffffffffffffffffffffffffffffffffffffffff1681526020019081526020015f205f8481526020019081526020015f205f9054906101000a900460ff16156115d7576040517f08c379a00000000000000000000000000000000000000000000000000000000081526004016115ce90612906565b60405180910390fd5b600182101580156115e9575060058211155b611628576040517f08c379a000000000000000000000000000000000000000000000000000000000815260040161161f9061296e565b60405180910390fd5b600160065f3373ffffffffffffffffffffffffffffffffffffffff1673ffffffffffffffffffffffffffffffffffffffff1681526020019081526020015f205f8581526020019081526020015f205f6101000a81548160ff0219169083151502179055505f60055f8673ffffffffffffffffffffffffffffffffffffffff1673ffffffffffffffffffffffffffffffffffffffff1681526020019081526020015f20905082816002015f8282546116df9190612477565b92505081905550806001015f8154809291906116fa90611f92565b91905055508060010154816002015461171391906125b4565b815f01819055507f2ad3df69dc3c3b6748540ea834f2bd5e4917e6f0fa7a58f78c05e4fb418d040e85338560405161174d9392919061298c565b60405180910390a15050505050565b6117646117e0565b5f73ffffffffffffffffffffffffffffffffffffffff168173ffffffffffffffffffffffffffffffffffffffff16036117d4575f6040517f1e4fbdf70000000000000000000000000000000000000000000000000000000081526004016117cb9190611ea5565b60405180910390fd5b6117dd81611867565b50565b6117e8611977565b73ffffffffffffffffffffffffffffffffffffffff16611806610f7e565b73ffffffffffffffffffffffffffffffffffffffff161461186557611829611977565b6040517f118cdaa700000000000000000000000000000000000000000000000000000000815260040161185c9190611ea5565b60405180910390fd5b565b5f805f9054906101000a900473ffffffffffffffffffffffffffffffffffffffff169050815f806101000a81548173ffffffffffffffffffffffffffffffffffffffff021916908373ffffffffffffffffffffffffffffffffffffffff1602179055508173ffffffffffffffffffffffffffffffffffffffff168173ffffffffffffffffffffffffffffffffffffffff167f8be0079c531659141344cd1fd0a4f28419497f9722a3daafe3b4186f6b6457e060405160405180910390a35050565b600260015403611964576040517f3ee5aeb500000000000000000000000000000000000000000000000000000000815260040160405180910390fd5b6002600181905550565b60018081905550565b5f33905090565b5f604051905090565b5f80fd5b5f80fd5b5f819050919050565b6119a18161198f565b81146119ab575f80fd5b50565b5f813590506119bc81611998565b92915050565b5f602082840312156119d7576119d6611987565b5b5f6119e4848285016119ae565b91505092915050565b6119f68161198f565b82525050565b5f602082019050611a0f5f8301846119ed565b92915050565b5f80fd5b5f80fd5b5f601f19601f8301169050919050565b7f4e487b71000000000000000000000000000000000000000000000000000000005f52604160045260245ffd5b611a6382611a1d565b810181811067ffffffffffffffff82111715611a8257611a81611a2d565b5b80604052505050565b5f611a9461197e565b9050611aa08282611a5a565b919050565b5f67ffffffffffffffff821115611abf57611abe611a2d565b5b611ac882611a1d565b9050602081019050919050565b828183375f83830152505050565b5f611af5611af084611aa5565b611a8b565b905082815260208101848484011115611b1157611b10611a19565b5b611b1c848285611ad5565b509392505050565b5f82601f830112611b3857611b37611a15565b5b8135611b48848260208601611ae3565b91505092915050565b5f805f60608486031215611b6857611b67611987565b5b5f611b75868287016119ae565b9350506020611b86868287016119ae565b925050604084013567ffffffffffffffff811115611ba757611ba661198b565b5b611bb386828701611b24565b9150509250925092565b5f805f8060808587031215611bd557611bd4611987565b5b5f85013567ffffffffffffffff811115611bf257611bf161198b565b5b611bfe87828801611b24565b9450506020611c0f878288016119ae565b9350506040611c20878288016119ae565b9250506060611c31878288016119ae565b91505092959194509250565b5f8060408385031215611c5357611c52611987565b5b5f611c60858286016119ae565b9250506020611c71858286016119ae565b9150509250929050565b5f73ffffffffffffffffffffffffffffffffffffffff82169050919050565b5f611ca482611c7b565b9050919050565b611cb481611c9a565b8114611cbe575f80fd5b50565b5f81359050611ccf81611cab565b92915050565b5f60208284031215611cea57611ce9611987565b5b5f611cf784828501611cc1565b91505092915050565b5f606082019050611d135f8301866119ed565b611d2060208301856119ed565b611d2d60408301846119ed565b949350505050565b611d3e81611c9a565b82525050565b5f81519050919050565b5f82825260208201905092915050565b5f5b83811015611d7b578082015181840152602081019050611d60565b5f8484015250505050565b5f611d9082611d44565b611d9a8185611d4e565b9350611daa818560208601611d5e565b611db381611a1d565b840191505092915050565b5f8115159050919050565b611dd281611dbe565b82525050565b5f61010082019050611dec5f83018b611d35565b8181036020830152611dfe818a611d86565b9050611e0d60408301896119ed565b611e1a60608301886119ed565b611e2760808301876119ed565b611e3460a0830186611dc9565b611e4160c0830185611d35565b611e4e60e08301846119ed565b9998505050505050505050565b5f608082019050611e6e5f830187611d35565b611e7b60208301866119ed565b8181036040830152611e8d8185611d86565b9050611e9c6060830184611dc9565b95945050505050565b5f602082019050611eb85f830184611d35565b92915050565b5f8060408385031215611ed457611ed3611987565b5b5f611ee185828601611cc1565b9250506020611ef2858286016119ae565b9150509250929050565b5f602082019050611f0f5f830184611dc9565b92915050565b5f805f60608486031215611f2c57611f2b611987565b5b5f611f3986828701611cc1565b9350506020611f4a868287016119ae565b9250506040611f5b868287016119ae565b9150509250925092565b7f4e487b71000000000000000000000000000000000000000000000000000000005f52601160045260245ffd5b5f611f9c8261198f565b91507fffffffffffffffffffffffffffffffffffffffffffffffffffffffffffffffff8203611fce57611fcd611f65565b5b600182019050919050565b7f54656e64657220636c6f736564000000000000000000000000000000000000005f82015250565b5f61200d600d83611d4e565b915061201882611fd9565b602082019050919050565b5f6020820190508181035f83015261203a81612001565b9050919050565b7f446561646c696e652070617373656400000000000000000000000000000000005f82015250565b5f612075600f83611d4e565b915061208082612041565b602082019050919050565b5f6020820190508181035f8301526120a281612069565b9050919050565b7f42696420657863656564732062756467657400000000000000000000000000005f82015250565b5f6120dd601283611d4e565b91506120e8826120a9565b602082019050919050565b5f6020820190508181035f83015261210a816120d1565b9050919050565b7f4e487b71000000000000000000000000000000000000000000000000000000005f52602260045260245ffd5b5f600282049050600182168061215557607f821691505b60208210810361216857612167612111565b5b50919050565b5f819050815f5260205f209050919050565b5f6020601f8301049050919050565b5f82821b905092915050565b5f600883026121ca7fffffffffffffffffffffffffffffffffffffffffffffffffffffffffffffffff8261218f565b6121d4868361218f565b95508019841693508086168417925050509392505050565b5f819050919050565b5f61220f61220a6122058461198f565b6121ec565b61198f565b9050919050565b5f819050919050565b612228836121f5565b61223c61223482612216565b84845461219b565b825550505050565b5f90565b612250612244565b61225b81848461221f565b505050565b5b8181101561227e576122735f82612248565b600181019050612261565b5050565b601f8211156122c3576122948161216e565b61229d84612180565b810160208510156122ac578190505b6122c06122b885612180565b830182612260565b50505b505050565b5f82821c905092915050565b5f6122e35f19846008026122c8565b1980831691505092915050565b5f6122fb83836122d4565b9150826002028217905092915050565b61231482611d44565b67ffffffffffffffff81111561232d5761232c611a2d565b5b612337825461213e565b612342828285612282565b5f60209050601f831160018114612373575f8415612361578287015190505b61236b85826122f0565b8655506123d2565b601f1984166123818661216e565b5f5b828110156123a857848901518255600182019150602085019450602081019050612383565b868310156123c557848901516123c1601f8916826122d4565b8355505b6001600288020188555050505b505050505050565b5f6060820190506123ed5f8301866119ed565b6123fa6020830185611d35565b61240760408301846119ed565b949350505050565b7f496e636f727265637420657363726f7720616d6f756e740000000000000000005f82015250565b5f612443601783611d4e565b915061244e8261240f565b602082019050919050565b5f6020820190508181035f83015261247081612437565b9050919050565b5f6124818261198f565b915061248c8361198f565b92508282019050808211156124a4576124a3611f65565b5b92915050565b5f6060820190506124bd5f8301866119ed565b6124ca6020830185611d35565b81810360408301526124dc8184611d86565b9050949350505050565b7f4e487b71000000000000000000000000000000000000000000000000000000005f52603260045260245ffd5b5f61251d8261198f565b91506125288361198f565b92508282039050818111156125405761253f611f65565b5b92915050565b5f6125508261198f565b915061255b8361198f565b92508282026125698161198f565b915082820484148315176125805761257f611f65565b5b5092915050565b7f4e487b71000000000000000000000000000000000000000000000000000000005f52601260045260245ffd5b5f6125be8261198f565b91506125c98361198f565b9250826125d9576125d8612587565b5b828204905092915050565b7f4e6f7420617574686f72697a65640000000000000000000000000000000000005f82015250565b5f612618600e83611d4e565b9150612623826125e4565b602082019050919050565b5f6020820190508181035f8301526126458161260c565b9050919050565b7f54656e646572206e6f7420636f6d706c657465640000000000000000000000005f82015250565b5f612680601483611d4e565b915061268b8261264c565b602082019050919050565b5f6020820190508181035f8301526126ad81612674565b9050919050565b7f457363726f7720656d70747900000000000000000000000000000000000000005f82015250565b5f6126e8600c83611d4e565b91506126f3826126b4565b602082019050919050565b5f6020820190508181035f830152612715816126dc565b9050919050565b7f446561646c696e65206e6f7420726561636865640000000000000000000000005f82015250565b5f612750601483611d4e565b915061275b8261271c565b602082019050919050565b5f6020820190508181035f83015261277d81612744565b9050919050565b7f496e76616c69642062696420696e6465780000000000000000000000000000005f82015250565b5f6127b8601183611d4e565b91506127c382612784565b602082019050919050565b5f6020820190508181035f8301526127e5816127ac565b9050919050565b7f496e76616c6964206269640000000000000000000000000000000000000000005f82015250565b5f612820600b83611d4e565b915061282b826127ec565b602082019050919050565b5f6020820190508181035f83015261284d81612814565b9050919050565b7f56656e646f72206e6f742073656c6563746564000000000000000000000000005f82015250565b5f612888601383611d4e565b915061289382612854565b602082019050919050565b5f6020820190508181035f8301526128b58161287c565b9050919050565b7f416c7265616479207261746564000000000000000000000000000000000000005f82015250565b5f6128f0600d83611d4e565b91506128fb826128bc565b602082019050919050565b5f6020820190508181035f83015261291d816128e4565b9050919050565b7f496e76616c696420726174696e670000000000000000000000000000000000005f82015250565b5f612958600e83611d4e565b915061296382612924565b602082019050919050565b5f6020820190508181035f8301526129858161294c565b9050919050565b5f60608201905061299f5f830186611d35565b6129ac6020830185611d35565b6129b960408301846119ed565b94935050505056fea2646970667358221220a05be98b774e5832ebe74c31522f49fac6a75c37ac24349e1839fe9b6e42194a64736f6c63430008140033",
  "immutableReferences": {},
  "source": "// SPDX-License-Identifier: MIT\npragma solidity ^0.8.20;\n\nimport \"@openzeppelin/contracts/access/Ownable.sol\";\nimport \"@openzeppelin/contracts/utils/ReentrancyGuard.sol\";\n\ncontract ProcurementSystem is Ownable, ReentrancyGuard {\n    // Constructor initialization\n    constructor() Ownable(msg.sender) {}\n\n    struct Tender {\n        address company;\n        string material;\n        uint quantity;\n        uint deadline;\n        uint maxBudget;\n        bool isOpen;\n        address selectedVendor;\n        uint escrowAmount;\n    }\n\n    struct Bid {\n        address vendor;\n        uint cost;\n        string qualityProof;\n        bool isActive;\n    }\n\n    struct VendorInfo {\n        uint reputationScore;\n        uint totalRatings;\n        uint sumRatings;\n        uint[] pastTenders;\n    }\n\n    uint public tenderCount;\n    mapping(uint => Tender) public tenders;\n    mapping(uint => Bid[]) public bids;\n    mapping(address => VendorInfo) public vendors;\n    mapping(address => mapping(uint => bool)) public hasRated;\n\n    event TenderCreated(uint tenderId, address company, string material);\n    event BidSubmitted(uint tenderId, address vendor, uint cost);\n    event VendorSelected(uint tenderId, address vendor, uint amount);\n    event PaymentReleased(uint tenderId, address vendor, uint amount);\n    event VendorRated(address vendor, address company, uint rating);\n\n    modifier onlyCompany(uint _tenderId) {\n        require(msg.sender == tenders[_tenderId].company, \"Not authorized\");\n        _;\n    }\n\n    function createTender(\n        string memory _material,\n        uint _quantity,\n        uint _duration,\n        uint _maxBudget\n    ) external payable {\n        require(msg.value == _maxBudget, \"Incorrect escrow amount\");\n        \n        tenderCount++;\n        tenders[tenderCount] = Tender({\n            company: msg.sender,\n            material: _material,\n            quantity: _quantity,\n            deadline: block.timestamp + _duration,\n            maxBudget: _maxBudget,\n            isOpen: true,\n            selectedVendor: address(0),\n            escrowAmount: msg.value\n        });\n\n        emit TenderCreated(tenderCount, msg.sender, _material);\n    }\n\n    function submitBid(\n        uint _tenderId,\n        uint _cost,\n        string memory _qualityProof\n    ) external {\n        Tender storage tender = tenders[_tenderId];\n        require(tender.isOpen, \"Tender closed\");\n        require(block.timestamp < tender.deadline, \"Deadline passed\");\n        require(_cost <= tender.maxBudget, \"Bid exceeds budget\");\n\n        bids[_tenderId].push(Bid({\n            vendor: msg.sender,\n            cost: _cost,\n            qualityProof: _qualityProof,\n            isActive: true\n        }));\n\n        emit BidSubmitted(_tenderId, msg.sender, _cost);\n    }\n\n    function calculateScore(uint _tenderId, uint _bidIndex) public view returns (uint) {\n        Bid memory bid = bids[_tenderId][_bidIndex];\n        VendorInfo memory vendor = vendors[bid.vendor];\n        \n        uint costScore = (tenders[_tenderId].maxBudget - bid.cost) * 40 / tenders[_tenderId].maxBudget;\n        uint qualityScore = bytes(bid.qualityProof).length > 0 ? 35 : 0;\n        uint reputationScore = vendor.reputationScore * 25 / 5; // Normalize 5-star to 25 points\n        \n        return costScore + qualityScore + reputationScore;\n    }\n\n    function selectVendor(uint _tenderId, uint _bidIndex) external onlyCompany(_tenderId) nonReentrant {\n        Tender storage tender = tenders[_tenderId];\n        require(tender.isOpen, \"Tender closed\");\n        require(block.timestamp >= tender.deadline, \"Deadline not reached\");\n        require(_bidIndex < bids[_tenderId].length, \"Invalid bid index\");\n\n        Bid storage bid = bids[_tenderId][_bidIndex];\n        require(bid.isActive, \"Invalid bid\");\n\n        tender.selectedVendor = bid.vendor;\n        tender.isOpen = false;\n        tender.escrowAmount = bid.cost;\n\n        if (tender.maxBudget > bid.cost) {\n            payable(tender.company).transfer(tender.maxBudget - bid.cost);\n        }\n\n        vendors[bid.vendor].pastTenders.push(_tenderId);\n        emit VendorSelected(_tenderId, bid.vendor, bid.cost);\n    }\n\n    function releasePayment(uint _tenderId) external onlyCompany(_tenderId) nonReentrant {\n        Tender storage tender = tenders[_tenderId];\n        require(!tender.isOpen, \"Tender not completed\");\n        require(tender.escrowAmount > 0, \"Escrow empty\");\n\n        uint amount = tender.escrowAmount;\n        tender.escrowAmount = 0;\n        payable(tender.selectedVendor).transfer(amount);\n\n        emit PaymentReleased(_tenderId, tender.selectedVendor, amount);\n    }\n\n    function rateVendor(address _vendor, uint _tenderId, uint _rating) external {\n        Tender storage tender = tenders[_tenderId];\n        require(tender.selectedVendor == _vendor, \"Vendor not selected\");\n        require(msg.sender == tender.company, \"Not authorized\");\n        require(!hasRated[msg.sender][_tenderId], \"Already rated\");\n        require(_rating >= 1 && _rating <= 5, \"Invalid rating\");\n\n        hasRated[msg.sender][_tenderId] = true;\n        VendorInfo storage vendor = vendors[_vendor];\n        \n        vendor.sumRatings += _rating;\n        vendor.totalRatings++;\n        vendor.reputationScore = vendor.sumRatings / vendor.totalRatings;\n\n        emit VendorRated(_vendor, msg.sender, _rating);\n    }\n\n    function getTopBidIndex(uint _tenderId) public view returns (uint) {\n        uint highestScore;\n        uint winningIndex;\n        \n        for(uint i = 0; i < bids[_tenderId].length; i++) {\n            uint score = calculateScore(_tenderId, i);\n            if(score > highestScore) {\n                highestScore = score;\n                winningIndex = i;\n            }\n        }\n        return winningIndex;\n    }\n}",
  "sourcePath": "/home/rohi/dev/aurigoNIThack/contracts/ProcurementSystem.sol",
  "compiler": {
    "name": "solc",
    "version": "0.8.20+commit.a1b79de6.Emscripten.clang"
  },
  "schemaVersion": "3.4.16",
  "updatedAt": "2025-01-25T10:18:27.151Z",
  "devdoc": {
    "errors": {
      "OwnableInvalidOwner(address)": [
        {
          "details": "The owner is not a valid owner account. (eg. `address(0)`)"
        }
      ],
      "OwnableUnauthorizedAccount(address)": [
        {
          "details": "The caller account is not authorized to perform an operation."
        }
      ],
      "ReentrancyGuardReentrantCall()": [
        {
          "details": "Unauthorized reentrant call."
        }
      ]
    },
    "kind": "dev",
    "methods": {
      "owner()": {
        "details": "Returns the address of the current owner."
      },
      "renounceOwnership()": {
        "details": "Leaves the contract without owner. It will not be possible to call `onlyOwner` functions. Can only be called by the current owner. NOTE: Renouncing ownership will leave the contract without an owner, thereby disabling any functionality that is only available to the owner."
      },
      "transferOwnership(address)": {
        "details": "Transfers ownership of the contract to a new account (`newOwner`). Can only be called by the current owner."
      }
    },
    "version": 1
  },
  "userdoc": {
    "kind": "user",
    "methods": {},
    "version": 1
  }
}